:100000000C9439000C9456000C9456000C94560035
:100010000C9456000C9456000C9438050C94560021
:100020000C9456000C9456000C9456000C94130536
:100030000C9456000C9456000C9456000C945600E8
:100040000C948B000C9456000C9456000C945600A3
:100050000C94560036043B04400445044A044F0403
:10006000540459045E04630468046D047204770444
:100070007C0411241FBECFE5D8E0DEBFCDBF11E068
:10008000A0E6B0E0E6E3FEE002C005900D92AE32DD
:10009000B107D9F721E0AEE2B1E001C01D92A23470
:1000A000B207E1F70E949F020C9419070C9400001C
:1000B00087B1806487B987B18F7787B987B180624C
:1000C00087B986B1887F86B986B1876086B986B1DF
:1000D000806886B9089561157105C9F0411551050B
:1000E000C1F0709331016093300150932F01409320
:1000F0002E0197B1907E97B997B1892B87B986B1B8
:10010000806486B986B1886086B981E0089583E00D
:10011000089583E008951F920F920FB60F92112455
:100120002F933F934F935F936F937F938F939F93FF
:10013000AF93BF93EF93FF93E0913001F0913101C2
:1001400085B190E09183808386B1877F86B9E09105
:100150002E01F0912F01309709F00995FF91EF9151
:10016000BF91AF919F918F917F916F915F914F91CF
:100170003F912F910F900FBE0F901F9018956830F0
:1001800008F078C04130C1F5813091F028F082301C
:10019000D9F0833029F170C02BB381E090E002C028
:1001A000880F991F6A95E2F7822B8BBB81E0089537
:1001B00028B381E090E002C0880F991F6A95E2F7AA
:1001C000822B88BB81E0089525B381E090E002C0D6
:1001D000880F991F6A95E2F7822B85BB81E008950D
:1001E00022B381E090E002C0880F991F6A95E2F780
:1001F000822B82BB81E00895411140C0813099F08B
:1002000028F08230E9F0833041F13AC02BB381E02D
:1002100090E002C0880F991F6A95E2F780958223CB
:100220008BBB81E0089528B381E090E002C0880F85
:10023000991F6A95E2F78095822388BB81E0089533
:1002400025B381E090E002C0880F991F6A95E2F71C
:100250008095822385BB81E0089522B381E090E000
:1002600002C0880F991F6A95E2F78095822382BBAE
:1002700081E0089580E0089581E0089580E0089588
:1002800081E00895813049F028F0823049F08330D0
:1002900051F00CC06ABB81E0089567BB81E008950E
:1002A00064BB81E0089561BB81E0089580E008951A
:1002B000813049F028F0823049F0833051F00CC091
:1002C0006BBB81E0089568BB81E0089565BB81E068
:1002D000089562BB81E0089580E008956830C0F51C
:1002E000813091F028F08230D9F0833029F132C08A
:1002F00089B390E002C0959587956A95E2F7817081
:10030000FA01808381E0089586B390E002C095955C
:1003100087956A95E2F78170FA01808381E00895FC
:1003200083B390E002C0959587956A95E2F7817056
:10033000FA01808381E0089580B390E002C0959532
:1003400087956A95E2F78170FA01808381E00895CC
:1003500080E0089580E008951F93CF93DF93D82F16
:10036000C62F192F10650E948805812F0E94AB05AA
:100370008D2F0E94D1058C2F0E94D1050E94A405CB
:100380008FE19EE40197F1F700C00000DF91CF916B
:100390001F9108950F931F93CF93DF93D82F8B0155
:1003A000C92FC0650E9488058C2F0E94AB058D2F38
:1003B0000E94D1050E9496058C2F0E94BE05C8019F
:1003C0000E94DD050E94A4058FE19EE40197F1F7EC
:1003D00000C00000DF91CF911F910F9108958FB75A
:1003E00080688FBF0895CF93C82F482F417064E075
:1003F00081E00E94BF00C1FB442740F965E081E035
:100400000E94BF00C2FB442740F966E081E00E94E1
:10041000BF00C3FB442740F967E081E00E94BF00B2
:10042000CF91089541E063E081E00E94BF008FE337
:100430009FE10197F1F700C0000040E063E081E038
:100440000E94BF000895CF93C82F40E061E081E093
:100450000E94BF0040E062E081E00E94BF008C2F5C
:1004600082958F700E94F3010E9412028C2F0E94CD
:10047000F3010E941202CF910895CF93C82F41E05B
:1004800061E081E00E94BF0040E062E081E00E9404
:10049000BF008C2F82958F700E94F3010E94120280
:1004A0008C2F0E94F3010E941202CF9108952FEF2A
:1004B00083EF91E0215080409040E1F700C00000C0
:1004C00082E00E94F3010E94120282E00E94F30186
:1004D0000E94120288E00E94F3010E9412028CE046
:1004E0000E94230281E00E94230208950F931F932C
:1004F000CF93009729F40CC00E943D02CF5F02C049
:100500008C01C0E0F801EC0FF11D80818111F4CF66
:1005100081E0CF911F910F910895CF93662341F011
:10052000613019F080E0C0E004C0805CC1E001C02F
:10053000C1E080680E9423028C2FCF9108956FEF55
:1005400081E00E9442010E94570260E080E00E9428
:10055000420160E083E00E9442016FEF83E00E946D
:1005600058010E94EF010E9458000E947C050E94E1
:10057000FF040E9441030E949004FDCF60913E0160
:1005800070913F0180E090E00E94180620E030E08A
:1005900040EA50E40E947E0620E030E040E85BE361
:1005A0000E947E060E94E905643018F4613028F04C
:1005B00022C0643009F442C0089580913D01823028
:1005C00089F028F4882341F0813049F00895833080
:1005D00061F0843069F0089510923B010895109203
:1005E0003901089510923701089510923501089548
:1005F00010923301089580913D01823099F028F4E2
:10060000882341F0813051F00895833079F08430AF
:1006100089F0089581E080933B01089581E0809303
:100620003901089581E080933701089581E0809336
:100630003501089581E080933301089580913D0153
:10064000823099F028F4882341F0813051F00895E8
:10065000833079F0843089F0089582E080933B0103
:10066000089582E080933901089582E080933701F4
:10067000089582E080933501089582E080933301EC
:100680000895EF92FF920F931F93CF93DF93CDB70F
:10069000DEB76E970FB6F894DEBF0FBECDBF8EE10A
:1006A000E0E6F0E0DE01119601900D928A95E1F707
:1006B000F12C17C00F2D10E0000F111FE1E0F0E04A
:1006C000EC0FFD1FE00FF11F6081E180C8019C5F0E
:1006D0000E94AC016E2DC8018F5F9B4F0E94AC0140
:1006E000F3948EE08F1530F76E960FB6F894DEBF58
:1006F0000FBECDBFDF91CF911F910F91FF90EF9073
:100700000895BF92CF92DF92EF92FF920F931F93C3
:10071000CF93DF931F92CDB7DEB71982809132015C
:1007200090E0AC01552746955795442703E311E027
:10073000F801218130E0C90190E4899F902D88273C
:100740001124842B952B65E371E0FB01218130E0BE
:10075000322F22273295330F307E822B932B47E3A3
:1007600051E0FA01218130E0322F22273295307F8B
:10077000822B932BA9E3B1E011962C91119730E0D5
:10078000322F2227330F330F330F822B932B0F2E51
:10079000FBE3CF2EF1E0DF2EF02DF601218130E0DA
:1007A000322F2227330F330F822B932BF801208116
:1007B00030E0322F2227822B932BFB01E080F0E4E4
:1007C000EF9E70011124E82AF92AFA012081F0E154
:1007D0002F9F90011124E22AF32A8C9190E0880F38
:1007E000991F880F991FE82AF92AF6018081E82AC3
:1007F000B12C1FC0CB2CD12CCC0CDD1CBE016F5FEB
:100800007F4FC6019C5F0E94CA01098110E0BE01B2
:100810006F5F7F4FC6018F5F9B4F0E94CA01898126
:1008200090E0982F8827082B192BE016F10641F04D
:10083000B394FEE0FB15F0F60F2EFFE0BF2EF02D77
:1008400081E00E94230260E080E00E948D022FE0A0
:10085000B21609F456C08B2D90E08F30910508F048
:1008600054C0FC01E65DFF4F0C9413078EE790E047
:100870000E9476024AC08FE890E00E94760245C04E
:100880008AE990E00E94760240C08CEA90E00E94E3
:1008900076023BC08DEB90E00E94760236C081EC80
:1008A00090E00E94760231C08AEC90E00E947602CD
:1008B0002CC080EE90E00E94760227C085EE90E08A
:1008C0000E94760222C080EF90E00E9476021DC056
:1008D00083EF90E00E94760218C089EF90E00E94BA
:1008E000760213C083E091E00E9476020EC08CE095
:1008F00091E00E94760209C08BE191E00E947602AD
:1009000004C082E291E00E9476020F90DF91CF91C5
:100910001F910F91FF90EF90DF90CF90BF900895BF
:1009200010923D014EEB52E06EE371E080E00E94D8
:100930006B004CE351E060E083E00E946E018AE0CE
:100940000E94610580913D018F5F80933D014EEBD8
:1009500052E06EE371E081E00E946B004AE351E0F7
:1009600061E083E00E946E018AE00E94610580914F
:100970003D018F5F80933D014EEB52E06EE371E0ED
:1009800082E00E946B0048E351E062E083E00E9455
:100990006E018AE00E94610580913D018F5F809326
:1009A0003D014EEB52E06EE371E083E00E946B008C
:1009B00046E351E063E083E00E946E018AE00E941A
:1009C000610580913D018F5F80933D014EEB52E0C8
:1009D0006EE371E084E00E946B0044E351E064E068
:1009E00083E00E946E018AE00E94610542E351E0CB
:1009F00065E083E00E946E010E948103089583B741
:100A00008F7B83BF83B7886083BF83B78F7C83BFAF
:100A100083B783BF89EF8CBF83B7887F83BF83B7DA
:100A2000826083BF08951F920F920FB60F92112418
:100A30002F933F934F935F936F937F938F939F93E6
:100A4000AF93BF93EF93FF93E0E0F0E00995FF9140
:100A5000EF91BF91AF919F918F917F916F915F9136
:100A60004F913F912F910F900FBE0F901F901895AF
:100A70001F920F920FB60F9211242F933F934F9313
:100A80005F936F937F938F939F93AF93BF93EF93F6
:100A9000FF93E0914001F09141010995FF91EF91A1
:100AA000BF91AF919F918F917F916F915F914F9186
:100AB0003F912F910F900FBE0F901F90189582BFFE
:100AC00008951F93CF93DF93182FD0E00FC080E0DD
:100AD0000E945F0508B601FEFDCF88B7826088BF1F
:100AE000CF5F01C0C0E0C83090F3DF5FD117D0F313
:100AF000DF91CF911F91089581B18E7F81B981B12E
:100B00008D7F81B98CE080B986B7846086BF0895F7
:100B100086B7806286BF86B7806886BF06B607FE46
:100B2000FDCF81B1887F8830E1F7089586B7806274
:100B300086BF86B7806886BF06B607FEFDCF81B147
:100B4000887F8031E1F7089586B7806186BF86B7D8
:100B5000806886BF0895880F83B983B18E7F83B97B
:100B600086B78F7D86BF86B7806886BF06B607FECC
:100B7000FDCF81B1887F8831E1F70895880F83B96F
:100B800083B1816083B986B78F7D86BF86B7806861
:100B900086BF06B607FEFDCF81B1887F8034E1F7BE
:100BA000089583B986B7806886BF06B607FEFDCF75
:100BB00081B1887F8832E1F70895FC01892B41F0EB
:100BC00096B7906896BF06B607FEFDCF83B18083C7
:100BD00008950E945D0688F09F5798F0B92F9927D5
:100BE000B751B0F0E1F0660F771F881F991F1AF018
:100BF000BA95C9F714C0B13091F00E947706B1E000
:100C000008950C947706672F782F8827B85F39F0FE
:100C1000B93FCCF3869577956795B395D9F73EF4B0
:100C200090958095709561957F4F8F4F9F4F089558
:100C3000E89409C097FB3EF4909580957095619576
:100C40007F4F8F4F9F4F9923A9F0F92F96E9BB272C
:100C50009395F695879577956795B795F111F8CFA8
:100C6000FAF4BB0F11F460FF1BC06F5F7F4F8F4F13
:100C70009F4F16C0882311F096E911C0772321F009
:100C80009EE8872F762F05C0662371F096E8862FA1
:100C900070E060E02AF09A95660F771F881FDAF7F8
:100CA000880F9695879597F9089557FD9058440FAA
:100CB000551F59F05F3F71F04795880F97FB991FBB
:100CC00061F09F3F79F08795089512161306140678
:100CD000551FF2CF4695F1DF08C016161706180605
:100CE000991FF1CF86957105610508940895E894E0
:100CF000BB2766277727CB0197F908950E949106B5
:100D00000C9402070E94F40638F00E94FB0620F0C3
:100D1000952311F00C94EB060C94F10611240C941D
:100D200078060E94550670F3959FC1F3950F50E029
:100D3000551F629FF001729FBB27F00DB11D639F8D
:100D4000AA27F00DB11DAA1F649F6627B00DA11D33
:100D5000661F829F2227B00DA11D621F739FB00DD9
:100D6000A11D621F839FA00D611D221F749F332749
:100D7000A00D611D231F849F600D211D822F762FE2
:100D80006A2F11249F5750409AF0F1F088234AF0BF
:100D9000EE0FFF1FBB1F661F771F881F915050402B
:100DA000A9F79E3F510580F00C94EB060C94780651
:100DB0005F3FE4F3983ED4F3869577956795B795B2
:100DC000F795E7959F5FC1F7FE2B880F911D9695CC
:100DD000879597F9089597F99F6780E870E060E03C
:100DE00008959FEF80EC089500240A9416161706C4
:100DF00018060906089500240A941216130614060C
:100E000005060895092E0394000C11F4882352F06E
:100E1000BB0F40F4BF2B11F460FF04C06F5F7F4F26
:100E20008F4F9F4F0895EE0FFF1F0590F491E02D17
:060E30000994F894FFCFC5
:100E3600A200A0008020961AA282A8820078000054
:100E4600800005008202821AAA02A502821A54684C
:100E56006973206973207465727269626C650049F2
:100E6600206C6F766520796F750049207265616C1C
:100E76006C79206C6F766520796F750049276D2037
:100E86007761746368696E6720796F7500596F754D
:100E960000476F6F64204A6F620057697368207954
:100EA6006F752061206861707079206C69666500D5
:100EB60053544F500049206861746520796F75005E
:100EC6004F4B00506561636500476F6F64206C751A
:100ED600636B0049742068757274730049742068E6
:100EE600757274732061206C6F740053756E646143
:0E0EF60079004E6F205369676E207965740095
:00000001FF
